:0400000051EF00F0CC
:100008005882FACF1DF0FBCF1EF0E9CF1FF0EACFE0
:1000180020F0E1CF21F0E2CF22F0D9CF23F0DACFE0
:1000280024F0F3CF25F0F4CF26F0F6CF27F0F7CF62
:1000380028F0F8CF29F0F5CF2AF058C02BF059C096
:100048002CF05AC02DF05BC02EF06CEC06F02EC0E0
:100058005BF02DC05AF02CC059F02BC058F02AC0C4
:10006800F5FF29C0F8FF28C0F7FF27C0F6FF26C014
:10007800F4FF25C0F3FF24C0DAFF23C0D9FF22C054
:10008800E2FF21C0E1FF20C0EAFF1FC0E9FF1EC058
:0E009800FBFF1DC0FAFF5892110074EF10F02C
:1003000000D3034803A5037C0305010906A10105E9
:100310000719E029E7150025017501950881029567
:1003200001750881039505750105081901290591D5
:10033000029501750391039506750815002565055D
:1003400007190029658100C034034D00690063006E
:1003500072006F00630068006900700020005400A4
:100360006500630068006E006F006C006F0067003E
:100370007900200049006E0063002E000902290068
:10038000010100C03209040000020301010009213B
:1003900011010001223F0007058103080001070544
:1003A00001030800011C034B006500790062006F27
:1003B000006100720064002000440065006D006F61
:1003C000001201000200000008D8045500010001DD
:1003D0000200010403090400200E526001D0120043
:1003E00064A211D0010E5FEC10F0020E4AEC10F086
:1003F000030E35EC10F0040E20EC10F012003DC09E
:100400007EF03EC07FF03D5000017E19F8E13E5085
:100410007F19D8A4F4D739C095F03AC096F0951F4B
:10042000961F954B962B7E519525986F7F5196215F
:10043000996F99AF12D039C095F03AC096F0951FD8
:10044000961F954B962B7E5195277F519623FF0E35
:100450009525986F7F0E9621996F99BF0CD0F50E58
:10046000985D010E9959D8A006D00C0E7E25396EE4
:10047000FE0E7F213A6E2F503010D8B406D02FC018
:10048000D9FF30C0DAFFDFBEEBD0400E8A6F020E1C
:100490008B6F000E8D6F000E8C6F000E8F6F080E2D
:1004A0008E6F6AEC0FF087EC10F0880E00018F6FF2
:1004B000000E906F860E916F000E926F20EC0FF081
:1004C000010E5FEC10F0E806D8A404D0010E346EE3
:1004D00002014083020E4AEC10F0E806D8A405D0D1
:1004E000010E346E1B0E0201436F030E35EC10F04B
:1004F000E806D8A405D0010E346E1D0E0201446F2B
:10050000040E20EC10F0E806D8A405D0010E346EDD
:10051000290E0201456F010E346EF80E0001885D50
:10052000030E8959D8A002D0500E1ED0F30E000140
:10053000885D030E8959D8B010D0200E0001885D67
:10054000030E8959D8B002D04F0E0ED0840E000190
:10055000885D030E8959D8B006D0000E0201476F9E
:10056000000E486F03D0000E0201476FF80E000125
:10057000865D030E8759D8A002D0510E1ED0F30E0F
:100580000001865D030E8759D8B010D0F40E00012B
:10059000865D010E8759D8B002D0520E0ED0580E8B
:1005A0000001865D020E8759D8B006D0000E020108
:1005B000466F000E486F03D0000E0201466F000E1A
:1005C0000001976F000E9A6F070E9A6501D019D03F
:1005D0009A51010D400EF324D96E020EF420DA6E0A
:1005E0009A51010D600EF324E16E000EF420E26ECC
:1005F000DE50E618D8B403D0010E976F02D09A2BC4
:10060000E3D780518111D8B40CD08051985D9951B5
:10061000800A956F8151800A9559D8A002D0010EA9
:10062000976F9705D8A41CD022EE40F010EE60F032
:10063000070EDBCFE3FFE806FCE2010E8A6F400EF7
:100640008B6F020E8C6F080E8D6F010E9BEC07F006
:100650008AC02FF08BC030F07EC039F07FC03AF0F6
:1006600031503210D8B406D031C0D9FF32C0DAFFD1
:10067000DFBE1200B4EC10F0000E00018A6F480ECD
:100680008B6F020E8C6F010E8D6F010E9BEC07F0CD
:100690008AC031F08BC032F0120002012205D8A4CA
:1006A00010D020511F0B0009D8A40BD00001738F6C
:1006B000030E02012119D8A402D0010E01D0000EB0
:1006C0004F6E2251D8A4120020511F0B020AD8A449
:1006D000120024510F0B0009D8B4120024510F0B43
:1006E000156E020E15601200200E5218D8A41200CA
:1006F0000001738F020124BF19D024510F0B156E16
:100700001550020D7A0EF324D96E000EF420DA6E25
:10071000DECF19F0DDCF1AF024510F0B156E1550F6
:10072000010D820EF324D96E000E18D024510F0B48
:10073000156E1550020D760EF324D96E000EF420BE
:10074000DA6EDECF19F0DDCF1AF024510F0B156EE3
:100750001550010D840EF324D96E000EF420DA6ECC
:10076000DF50186E18B006D0FB0E1914196EFF0E6C
:100770001A1404D0040E1910196E1A501A6E24BFE0
:100780000AD024510F0B156E1550020D7A0EF3246A
:10079000D96E000E09D024510F0B156E1550020DA5
:1007A000760EF324D96E000EF420DA6E19C0DEFF47
:1007B0001AC0DDFF030E2119D8A42DD019C0D9FF0E
:1007C0001AC0DAFFDFAE1AD024BF0AD024510F0BB3
:1007D000156E1550010D820EF324D96E000E0AD04D
:1007E000020124510F0B156E1550010D840EF324D8
:1007F000D96E000EF420DA6E0001DF8219C0D9FF35
:100800001AC0DAFF000EDB8419C0D9FF1AC0DAFF64
:10081000000EDB8E1200040E1918196E1A501A6E93
:1008200019C0D9FF1AC0DAFFDFAE1BD019C0D9FF3B
:100830001AC0DAFF7F0EDF1619C0D9FF1AC0DAFF1F
:10084000000EDB8C000E0E6E050E0D6E19C00FF043
:100850001AC010F0000E126E020E116EB2EC0CF007
:1008600006D019C0D9FF1AC0DAFF000EDB8C040EC7
:100870001918196E1A501A6E18B206D019C0D9FF7D
:100880001AC0DAFFDFAE30D0020124BF0AD02451F3
:100890000F0B156E1550010D820EF324D96E000E4C
:1008A0000AD0020124510F0B156E1550010D840E54
:1008B000F324D96E000EF420DA6E0001DF9219C025
:1008C000D9FF1AC0DAFF3B0EDF16000E0E6E050EC2
:1008D0000D6E19C00FF01AC010F0000E126E020E4D
:1008E000116EB2EC0CF006D019C0D9FF1AC0DAFFB5
:1008F0003B0EDF16020124510F0B156E1550010D32
:10090000530EF324166E0F0EF420176E16C0D9FF87
:1009100017C0DAFFFE0EDF161200A094000E0F01C2
:100920005F6F000E626E000E536F540E00018A6FEF
:100930000F0E8B6F000E8D6F000E8C6F000E8F6F81
:10094000010E8E6F6AEC0FF0160E616E9F0E0F0196
:100950005B6F7B0E606E000E0001926F070E92655A
:1009600001D00ED09251040D000EF324D96E020E68
:10097000F420DA6EDE6ADE6ADE6ADD6A922BEED77A
:10098000648C000E0F015C6F6498649C6296000E8C
:100990000001736F000E6B6F000E6D6F000E6C6FB9
:1009A00062B6F4D7010E496E010E486E000E476E16
:1009B000000E466E000E4E6E000E926F010E926596
:1009C00001D02ED09251020D760EF324D96E000E76
:1009D000F420DA6E000EDE6E000EDD6E9251020D16
:1009E0007A0EF324D96E000EF420DA6E000EDE6E5D
:1009F000000EDD6E9251010D840EF324D96E000EAF
:100A0000F420DA6E000EDF6E9251010D820EF32497
:100A1000D96E000EF420DA6E000EDF6E922BCED768
:100A2000080E766F020E776F160E0F01536F020ECF
:100A30000201036F200E026F080E016F040E006F9B
:100A4000008F000E576E000E356E000E366E000ED3
:100A5000376E000E386E000E456E000E526E12009C
:100A6000A094000E0F015F6F000E626E000E536FB8
:100A7000540E016E0F0E026E000E046E000E036E19
:100A8000000E066E010E056EC8EC0FF0160E616EBC
:100A90009F0E0F015B6F7B0E606E000E096E070EDE
:100AA000096401D00ED00950040D000EF324D96E54
:100AB000020EF420DA6EDE6ADE6ADE6ADD6A092A78
:100AC000EED7648C000E0F015C6F6498649C629694
:100AD000000E0001736F000E6B6F000E6D6F000E45
:100AE0006C6F62B6F4D7010E496E010E486E000EAF
:100AF000476E000E466E000E4E6E000E096E010E21
:100B0000096401D02ED00950020D760EF324D96E5F
:100B1000000EF420DA6E000EDE6E000EDD6E09505F
:100B2000020D7A0EF324D96E000EF420DA6E000E58
:100B3000DE6E000EDD6E0950010D840EF324D96EB9
:100B4000000EF420DA6E000EDF6E0950010D820EE9
:100B5000F324D96E000EF420DA6E000EDF6E092A3F
:100B6000CED7080E0001766F020E776F160E0F01BA
:100B7000536F020E0201036F200E026F080E016F09
:100B8000040E006F008F000E576E000E356E000EC3
:100B9000366E000E376E000E386E000E456E000E7B
:100BA000526E120020EE01F04350D9264450DA2252
:100BB000DF50036E035000016C5D000E6D59D8A02C
:100BC0006CC003F003506C5F000E6D5B000E026E94
:100BD00011D00250010D280EF324D96E020EF4201C
:100BE000DA6E68C0E1FF69C0E2FFDFCFE7FF684B64
:100BF000692B022A0350025CD8A0EBD76C516D110F
:100C0000D8B432D020EE01F04150D9264250DA2239
:100C1000080EDF6E20EE02F04150D9264250DA2253
:100C2000280EDE6E020EDD6E43C0D9FF44C0DAFF2F
:100C3000DFBC0DD041C0D9FF42C0DAFF480EDF6EE5
:100C400041C0D9FF42C0DAFF000EDB8E120041C066
:100C5000D9FF42C0DAFF080EDF6E41C0D9FF42C0A3
:100C6000DAFF000EDB8E120020EE01F04150D92693
:100C70004250DA22080EDF6E20EE02F04150D926F3
:100C80004250DA22200EDE6E020EDD6E41C0D9FF28
:100C900042C0DAFF040EDF6E41C0D9FF42C0DAFF66
:100CA000000EDB8E6E516F11D8B40ED020EE6EF0B8
:100CB00001D80AD00500FA6EDE50FD6EDE50FE6EE1
:100CC000F850FF6EFA50120000016B9F4A50D8A4F2
:100CD00012004FEC0BF012005204D8B464BA06D0E4
:100CE000000E626E60806088020E526E62B460A474
:100CF00003D0629439EC0FF064A202D0A1941200E8
:100D000062B060A006D030EC05F0A084040E526EF4
:100D1000629062B860A802D0B2EC0FF062AC1AD058
:100D200060AC0ED0000E0E6E730E0D6E000E0F6EC8
:100D3000000E106E000E126E010E116EB2EC0CF071
:100D4000629C96EC10F04B50D8A44B064B50D8B494
:100D50004FEC0BF062BA60AA02D087EC0EF062B2E0
:100D600060A210D07F0E0E6E0D68000E0F6E000E8A
:100D7000106E000E126E010E116EB2EC0CF0000E31
:100D80000F015F6F040E526002D0A194120060A6A2
:100D900039D0000E1C6E030E1C6401D033D062A645
:100DA00031D063CF55F05530E832E8320F0B4D6E3D
:100DB000629655B407D04D50010D820EF324D96EC2
:100DC000000E06D04D50010D840EF324D96E000E96
:100DD000F420DA6E0001DF704D50D8A403D0FEEC91
:100DE0000CF00ED0000E0E6E720E0D6E550E0F6EC4
:100DF000000E106E000E126E000E116EB2EC0CF0B2
:100E00001C2AC9D7A1941200800E02012019D8A46F
:100E10001200C00E0001736F82D0C10E0001706F0E
:100E2000030E716F000E756F120E746F12000201C7
:100E30002251D8A440D02251020D070EF324F66EA1
:100E4000030EF420F76E0900F5CF70F00A00F5CF1D
:100E500071F0020E00017025016E000E7121026E0C
:100E600001C0F6FF02C0F7FFF86A020EF76403D074
:100E70000800F55005D0F6CFE1FFF7CFE2FFE750CD
:100E80000001746F030E7025016E000E7121026E59
:100E900001C0F6FF02C0F7FFF86A020EF76403D044
:100EA0000800F55005D0F6CFE1FFF7CFE2FFE7509D
:100EB0000001756F1200000E0001736F1200030E27
:100EC0000201226124D02251020D010EF324F66E9C
:100ED000030EF420F76E0900F5CF70F00A00F5CF8D
:100EE00071F070C0F6FF71C0F7FFF86A020EF76488
:100EF00003D00800F55005D0F6CFE1FFF7CFE2FFB1
:100F0000E750016E01500001746F756B1200000E06
:100F10000001736F1200000E0001736F12000201D6
:100F20002351010AD8B479D7030AD8B480D7010A6B
:100F3000D8B4C5D7F0D70001926F00018A51D8B458
:100F400007D09251020D760EF324D96E000E06D012
:100F50009251020D7A0EF324D96E000EF420DA6E4F
:100F6000DECF93F0DDCF94F093519411D8A405D047
:100F7000000E8A6F000E8B6F120020EE02F093516C
:100F8000D9269451DA228BC0DEFF8CC0DDFF20EE23
:100F900001F09351D9269451DA228DC0DFFF93C01E
:100FA000D9FF94C0DAFF400EDF1693C0D9FF94C07A
:100FB000DAFF000EDB8693C0D9FF94C0DAFF000E83
:100FC000DB8E8A51D8B418D09251020D760EF324DC
:100FD000D96E000EF420DA6EDECF8EF0DDCF8FF00A
:100FE000040E8E19906F8F51916F9251020D760EF3
:100FF000F324D96E000E17D09251020D7A0EF3240D
:10100000D96E000EF420DA6EDECF8EF0DDCF8FF0D9
:10101000040E8E19906F8F51916F9251020D7A0EBE
:10102000F324D96E000EF420DA6E90C0DEFF91C07A
:10103000DDFF93C08AF094C08BF01200096E01505E
:10104000D8B407D00950020D760EF324D96E000EE5
:1010500006D00950020D7A0EF324D96E000EF4204A
:10106000DA6EDECF0AF0DDCF0BF00A500B10D8A4F9
:1010700005D0000E016E000E026E120020EE02F08E
:101080000A50D9260B50DA2202C0DEFF03C0DDFF72
:1010900020EE01F00A50D9260B50DA2204C0DFFFFF
:1010A0000AC0D9FF0BC0DAFF400EDF160AC0D9FF15
:1010B0000BC0DAFF000EDB860AC0D9FF0BC0DAFFD7
:1010C000000EDB8E0150D8B418D00950020D760EF8
:1010D000F324D96E000EF420DA6EDECF05F0DDCFFA
:1010E00006F0040E0518076E0650086E0950020D32
:1010F000760EF324D96E000E17D00950020D7A0E29
:10110000F324D96E000EF420DA6EDECF05F0DDCFC9
:1011100006F0040E0518076E0650086E0950020D01
:101120007A0EF324D96E000EF420DA6E07C0DEFFCB
:1011300008C0DDFF0AC001F00BC002F0120002017E
:1011400020511F0BE806D8A412002451D8A4120085
:10115000060E2119D8B41AD022D05704D8A41FD013
:101160008E0E0001706F030E716F000E756F090E09
:101170000BD0C00E736F13D0090E0001706F030EF9
:10118000716F000E756F3F0E746FF3D7020123511C
:10119000210AD8B4E2D7030AD8B4EED7010A020173
:1011A0002039E832030BE806D8A412002DD0A5ECB4
:1011B00010F01200540E0001706F000E716F000EDF
:1011C000756F010E746FC10E736F1200800E0001F7
:1011D000736F23C254F054C001F002012251F8ECA5
:1011E00010F01200530E0001706F000E716F000EB0
:1011F000756F010E746F810E736F1200800E000107
:10120000736F22C253F0120002012151010AD8B4B7
:101210001200030AD8B4CED7010AD8B4E3D70A0A19
:10122000D8B4C5D7030AD8B4D1D7010AD8A41200BC
:10123000E5D76498000173BF38D06BAF0BD0020EB6
:10124000506E4650D8B463EC0CF0000E486E000EA1
:10125000496E120020EE01F04150D9264250DA22A8
:10126000080EDF6E20EE02F04150D9264250DA22FD
:10127000200EDE6E020EDD6E41C0D9FF42C0DAFFE5
:101280000C0EDF6E41C0D9FF42C0DAFF000EDB8ECC
:1012900076C0D9FF77C0DAFF040EDF6E76C0D9FFC3
:1012A00077C0DAFF000EDB8E1200020120AF10D0F3
:1012B000010E506E4750D8B463EC0CF0000E486E2F
:1012C000000E496E4A50D8A412004FEC0BF01200E9
:1012D000020E506E20EE01F04150D9264250DA2223
:1012E000080EDF6E20EE02F04150D9264250DA227D
:1012F000200EDE6E020EDD6E41C0D9FF42C0DAFF65
:10130000040EDF6E41C0D9FF42C0DAFF000EDB8E53
:10131000000E486E000E496E4A50D8A412004FECE1
:101320000BF0120076C0D9FF77C0DAFF0001000E83
:10133000DFBC010E026E040E7619766F7751776F5F
:10134000080E5218D8A40CD0020122517F0B0F01B5
:101350005C6F5C51D8B402D0100E01D0040E526EF6
:101360005004D8A43BD0000120EE02F07651D926DB
:101370007751DA22280EDE6E020EDD6EE9EC0AF0FD
:10138000020E5118D8A40DD076C0D9FF77C0DAFF6D
:10139000040EDF6E76C0D9FF77C0DAFF000EDB8E59
:1013A00012000250D8A40DD076C0D9FF77C0DAFF62
:1013B000480EDF6E76C0D9FF77C0DAFF000EDB8EF5
:1013C000120076C0D9FF77C0DAFF080EDF6E76C054
:1013D000D9FF77C0DAFF000EDB8E120000016BAF81
:1013E00014D06E516F11D8B40ED020EE6EF001D82B
:1013F0000AD00500FA6EDE50FD6EDE50FE6EF8502B
:10140000FF6EFA50120000016B9F000E506E12002A
:1014100002012039E832030B0009D8A4120047D09A
:101420000001738F080E526E120004EC07F01200D8
:1014300079EC0AF01200570E0001706F000E716F08
:101440007381010E746F738F12000FEC0CF0120099
:101450004DEC03F0120002012451010D560EF3244D
:101460000001706F000EF420716F7381010E746FB4
:10147000738F12000001738F02012451010D560E6B
:10148000F324D96E000EF420DA6E22C2DFFF1200C0
:10149000000E0E6E020E0D6E000E0F6E000E106E20
:1014A000000E126E000E116EB2EC0CF01200020172
:1014B0002151000AD8B4C9D7010AD8B4C9D7020A41
:1014C000D8B4C6D7060AD8B4ABD7030AD8B4ADD7B8
:1014D000010AD8B4DDD70F0AD8B4ADD7010AD8B401
:1014E000A7D7030AD8B4B7D7010AD8B4C3D7070A15
:1014F00012000001738F540E016E0F0E026E000E6B
:10150000046E000E036E000E066E010E056EC8EC32
:101510000FF0000E016E020E026E000E046E000E41
:10152000036E000E066E200E056EC8EC0FF0648C84
:10153000000E156E010E156401D016D01550010D68
:10154000840EF324D96E000EF420DA6E000EDF6EE6
:101550001550010D820EF324D96E000EF420DA6EC0
:10156000000EDF6E152AE6D7560E016E000E026ED3
:10157000000E046E000E036E000E066E010E056E68
:10158000C8EC0FF0649C080E0001766F020E776FB6
:10159000000E436E020E446E43C041F044C042F060
:1015A00022C257F05750D8A403D0100E526E12002A
:1015B000000E0E6E010E0D6E570E0F6E000E106EA9
:1015C000000E126E010E116EB2EC0CF0200E526E77
:1015D0001200080E016E0001755110E1080E745DD5
:1015E000D8B00CD074C001F05150D8A402D0010E74
:1015F00004D05104D8A402D0020E516E0150745F81
:10160000000E755B20EE01F07651D9267751DA2273
:1016100001C0DFFF280E3F6E020E406E73A11CD08A
:101620003AD070C0F6FF71C0F7FFF86A3FC0D9FF2B
:1016300040C0DAFF020EF76403D00800F55005D071
:10164000F6CFE1FFF7CFE2FFE750DF6E0001704B0E
:10165000712B3F4A402A01060150D8B41200E1D74D
:1016600070C0F6FF71C0F7FFF86A3FC0D9FF40C0F5
:10167000DAFF020EF76403D00800F55005D0F6CF6C
:10168000E1FFF7CFE2FFE750DF6E0001704B712BF7
:101690003F4A402A01060150D8B41200E1D7495010
:1016A000D8A41200010E496E4850D8A41200010EB1
:1016B000486E020E5018D8A416D0000120EE01F09A
:1016C0007651D9267751DA22000EDF6E76C0D9FF27
:1016D00077C0DAFF480EDF6E76C0D9FF77C0DAFF39
:1016E000000EDB8E12005004D8A41200000E4C6EC7
:1016F00020EE01F04350D9264450DA22080EDF6E66
:1017000020EE02F04350D9264450DA22200EDE6E3D
:10171000020EDD6E43C0D9FF44C0DAFF040EDF6E57
:1017200043C0D9FF44C0DAFF000EDB8E010E4C6EC1
:1017300020EE01F04150D9264250DA22080EDF6E29
:1017400020EE02F04150D9264250DA22200EDE6E01
:10175000020EDD6E41C0D9FF42C0DAFF800EDF6E9F
:10176000120064A254D0010E0AEC10F0020E0AEC32
:1017700010F0030E0AEC10F012003B043C10D8A449
:101780000AD0010EF4EC0FF0020EF4EC0FF0030E91
:10179000F4EC0FF041D04B0E3B183C10D8A40AD00B
:1017A000010E0AEC10F0020E0AEC10F0030E0AEC27
:1017B00010F032D03C5004E1970E3B5CD8A02CD006
:1017C000000E3C6E000E3B6E27D03B043C10D8A4AC
:1017D0000AD0010EF4EC0FF0020EF4EC0FF0030E41
:1017E000F4EC0FF019D0320E3B183C10D8A40AD0FC
:1017F000010E0AEC10F0020E0AEC10F0030E0AECD7
:1018000010F00AD0B70E3B5C030E3C58D7D75250AD
:10181000200AD8B4B2D7D9D73B4A3C2A1200000ECE
:101820000201286F000E296F38D00001738F4F041A
:10183000D8A43ED0020128833BD00001738F38D05A
:101840000001738F020124BF0AD024510F0B016ED7
:101850000150020D7A0EF324D96E000E09D02451E6
:101860000F0B016E0150020D760EF324D96E000E9F
:10187000F420DA6EDECF02F0DDCF03F002C0D9FF34
:1018800003C0DAFFDFAE14D002C0D9FF03C0DAFF15
:10189000DFA40ED0010E286F0BD020511F0B000AC1
:1018A000D8B4C3D7010AD8B4C8D7030AD8B4C8D7A4
:1018B000000173AF1200280E706F020E716F7381FA
:1018C000020E746F1200000E476E000E466E020E7E
:1018D0005018D8A41FD020EE01F04150D926425014
:1018E000DA22080EDF6E20EE02F04150D926425077
:1018F000DA22280EDE6E020EDD6E41C0D9FF42C034
:10190000DAFF480EDF6E41C0D9FF42C0DAFF000E99
:10191000DB8E1200000174510201265D0001755139
:1019200002012759D8B004D026C274F027C275F03E
:10193000E9EC0AF0000120EE02F07651D926775149
:10194000DA22280EDE6E020EDD6E76C0D9FF77C079
:10195000DAFF480EDF6E76C0D9FF77C0DAFF000EDF
:10196000DB8E120022D0B1EC0BF03D2804E17F0E9B
:101970003E18D8B403D03D4A3E2A1200000E3E6EF7
:10198000000E3D6E1200B1EC0BF0010E63EC0EF098
:101990001200B1EC0BF0020E63EC0EF01200DBEC67
:1019A0000DF012009FEC08F012000DC013F00EC0F5
:1019B00014F01450000AD8B404D07F0AD8A412003E
:1019C0001AD01350010AD8B4EAD7030AD8B41200C7
:1019D000010AD8B4E7D7060AD8B41200770AD8B4F7
:1019E0001200010AD8B4BFD7070AD8B4D2D7010A67
:1019F000D8A41200C8D71350FF0A12002D0E4B6E48
:101A000055C01BF0FD0E1B16D8A43BD055C01BF0D3
:101A1000D8901B323F0E1B161B50040D000EF324F2
:101A2000436E020EF420446E43C041F044C042F0C5
:101A3000040E4118416E4250426E43C0D9FF44C06B
:101A4000DAFFDF30E8320F0B0D0AD8A417D0200ED2
:101A5000016E020E026E20EE02F04350D926445071
:101A6000DA22DECF03F0DDCF04F0000E066E080EA2
:101A7000056EA9EC0EF093EC0DF012000FEC0EF0D9
:101A800012005550FD0B040AD8A4120092EC09F084
:101A90001200066E000E076E020E086E0150026EF6
:101AA000036AD890023603360650046E056AD89051
:101AB00004360536D8900436053602500426035005
:101AC0000522D89004360536D890043605360450E1
:101AD00007260550082207C0D9FF08C0DAFFDF9E9D
:101AE0000150D8A407D00650020D7A0EF324D96E07
:101AF000000E06D00650020D760EF324D96E000EAD
:101B0000F420DA6E07C0DEFF08C0DDFF07C0D9FF92
:101B100008C0DAFFDF9C20EE04F00750D9260850F9
:101B2000DA22DF8C1200000E516E000E4A6E000E9B
:101B3000476E000E466E000E4C6E000E506E76C064
:101B4000D9FF77C0DAFF7F0EDF16040E0001761989
:101B5000766F7751776F76C0D9FF77C0DAFF7F0E47
:101B6000DF16040E7619766F7751776F41C0D9FF73
:101B700042C0DAFF7F0EDF16000E736F000E756F26
:101B8000000E746F000E6B6F000E6D6F000E6C6FA9
:101B900008EC0AF0000E0E6E030E0D6E000E0F6EB6
:101BA000000E106E000E126E000E116EB2EC0CF0F4
:101BB00019EC09F01200300E7E6E000E7F6E000EE2
:101BC000936E010E946E000E2F6E000E306E000E9E
:101BD000346E000E0001816F0F0E806F04D03DC087
:101BE00039F03EC03AF03D503918F9E13E503A180C
:101BF000D8A4F5D71E0E096E010EE9EC0EF0000E0A
:101C0000016E480E026E020E036E010E046E010E8E
:101C10001EEC08F001C031F002C032F01200020EDA
:101C20005018D8A403D0D2EC05F01200000E506E6C
:101C30004C50D8A41FD020EE01F04150D92642507C
:101C4000DA22080EDF6E20EE02F04150D926425013
:101C5000DA22200EDE6E020EDD6E41C0D9FF42C0D8
:101C6000DAFF0C0EDF6E41C0D9FF42C0DAFF000E72
:101C7000DB8E1200000E4C6E120000018B6F19D02B
:101C8000010E52EC0FF0020E52EC0FF0030E52EC6C
:101C90000FF0020E52EC0FF0010EEFEC10F0020EFE
:101CA000E6EC10F0030EDDEC10F0040ED4EC10F0B6
:101CB000120000018B51000AD8B4E2D7010AD8B44F
:101CC0001200030A1200026E19D0010EDEEC0FF0B2
:101CD000020EDEEC0FF0030EDEEC0FF0020EDEEC77
:101CE0000FF0010E16EC11F0020E0FEC11F0030EC6
:101CF00008EC11F0040E01EC11F012000250000A81
:101D0000D8B4E3D7010AD8B41200030A12000F01B5
:101D100053A11DD043C0D9FF44C0DAFF800EDE18A6
:101D2000D8A414D076C0D9FF77C0DAFF840EDE18AD
:101D3000D8A40CD043C0D9FF44C0DAFF0C0EDF6E2C
:101D400043C0D9FF44C0DAFF000EDB8E5391629A84
:101D5000120003C009F004C00AF001C007F002C07D
:101D600008F010D009C0D9FF0AC0DAFFDF500B6EAF
:101D7000094A0A2A07C0D9FF08C0DAFF0BC0DFFFF3
:101D8000074A082A0506D8A006060528EBE106281A
:101D9000D8B41200E7D700018E6F530EC2160001AF
:101DA0008E45E846FC0BC212060EE82EFED700D088
:101DB000C280C282C2B2FED7C350C4CF8CF0000131
:101DC0008D6B8CC08DF08C6B8C118A6F8D518B6FED
:101DD00012000C6E09A405D0000E016E0C5049ECE7
:101DE0000DF009A205D0010E016E0C5049EC0DF06A
:101DF0000C50010D530EF3240A6E0F0EF4200B6EDF
:101E00000AC0D9FF0BC0DAFF09C0DFFF1200525031
:101E1000D8A41200000E646E000E606E160E616E85
:101E20009F0E0F015B6F7B0E606ED08EA284A0842C
:101E3000F28E01D0648664A6FDD7010E526E1200A8
:101E4000050ECBEC0EF08FC0D9FF90C0DAFF000179
:101E50008AC0DEFF8BC0DDFF040ECBEC0EF091C01C
:101E6000D9FF92C0DAFF00018AC0DEFF8BC0DDFF20
:101E70001200000E4E6E000E0E6E740E0D6E000EF1
:101E80000F6E000E106E000E126E000E116EB2EC90
:101E90000CF06492609401D0629462B4FDD7000E9D
:101EA000456E120000018A6F06D0939A1200939C2F
:101EB0001200939E120000018A51000AD8B4120049
:101EC000010AD8B4F2D7030AD8B4F1D7010AD8A4CA
:101ED0001200EFD78AC090F08BC091F009D090C06B
:101EE000D9FF91C0DAFF8CC0DFFF0001904B912B2E
:101EF00000018E07D8A08F078E29F1E18F29D8B471
:101F00001200EDD700018A6F06D08A8A12008A8CEF
:101F100012008A8E120000018A51000AD8B4120001
:101F2000010AD8B4F2D7030AD8B4F1D7010AD8A469
:101F30001200EFD700018A6F06D08A9A12008A9C9D
:101F400012008A9E120000018A51000AD8B41200C1
:101F5000010AD8B4F2D7030AD8B4F1D7010AD8A439
:101F60001200EFD7608462986482010E4E6E000EFC
:101F7000456E000E0E6E750E0D6E000E0F6E000E8D
:101F8000106E000E126E000E116EB2EC0CF012000C
:101F900001C007F002C008F008D007C0D9FF08C090
:101FA000DAFF03C0DFFF074A082A0506D8A00606A5
:101FB0000528F3E10628D8B41200EFD7016E06D049
:101FC000939A1200939C1200939E12000150000AF3
:101FD000D8B41200010AD8B4F3D7030AD8B4F2D7A0
:101FE000010AD8A41200F0D7016E06D08A8A120026
:101FF0008A8C12008A8E12000150000AD8B4120096
:10200000010AD8B4F3D7030AD8B4F2D7010AD8A486
:102010001200F0D7016E06D08A9A12008A9C120034
:102020008A9E12000150000AD8B41200010AD8B4E6
:10203000F3D7030AD8B4F2D7010AD8A41200F0D714
:1020400000018A6F08D082BA02D0010E1200000E81
:102050001200000E120000018A51000AD8B4F9D70C
:10206000040AD8B4F0D7000E120000018A6F08D01D
:1020700082B802D0010E1200000E1200000E1200F3
:1020800000018A51000AD8B4F9D7030AD8B4F0D7AE
:10209000000E120000018A6F08D082B602D0010E35
:1020A0001200000E1200000E120000018A51000AF8
:1020B000D8B4F9D7020AD8B4F0D7000E1200000144
:1020C0008A6F08D082B402D0010E1200000E1200F6
:1020D000000E120000018A51000AD8B4F9D7010A93
:1020E000D8B4F0D7000E120000EE60F02A0EEE6AAF
:1020F000E806FDE100EE2FF0290EEE6AE806FDE1AC
:1021000058905892000EF86E0001CAEF10F0300E91
:102110007E6E000E7F6E010E946E000E936E8268CE
:102120008168000EC16EAE0EC06E1200010E352623
:10213000000E3622372238224E50D8A41200452AEB
:102140004550D8A4120045681200280E0001686F9F
:10215000020E696F000E6D6F080E6C6F3A0E6E6F97
:10216000220E6F6F6B8F1200020148A304D0020E83
:1021700082EC0FF01200020E9AEC0FF01200020136
:1021800048A304D0020EF4EC0FF01200020E0AEC89
:1021900010F01200000E3DEC0EF08DEC04F007EC98
:1021A0000FF0ECEC01F0FDD700018A6F00018A51BD
:1021B000000AD8B41200040A120000018A6F00015C
:1021C0008A51000AD8B41200030A120000018A6F73
:1021D00000018A51000AD8B41200020A120000015C
:1021E0008A6F00018A51000AD8B41200010A120055
:1021F000026E0250D8A4120001C080F00001816B71
:102200001200016E0150000AD8B41200040A120034
:10221000016E0150000AD8B41200030A1200016EC8
:102220000150000AD8B41200020A1200016E0150D7
:10223000000AD8B41200010A120028C248F2BFEC0A
:0422400010F0120088
:020000040020DA
:08000000FFFFFFFFFFFFFFFF00
:020000040030CA
:0E0000000032011EFF0081FF03C003E0034039
:00000001FF
